:100000000C9462000C948A000C948A000C948A0070
:100010000C948A000C948A000C948A000C948A0038
:100020000C948A000C948A000C948A000C948A0028
:100030000C948A000C948A000C948A000C948A0018
:100040000C949A020C948A000C9468020C9442025C
:100050000C948A000C948A000C948A000C948A00F8
:100060000C948A000C948A000000000025002800EF
:100070002B0000000000240027002A0000000000E0
:1000800023002600290004040404040404040202DA
:100090000202020203030303030301020408102007
:1000A0004080010204081020010204081020000012
:1000B0000008000201000003040700000000000027
:1000C00000003E0411241FBECFEFD8E0DEBFCDBF3D
:1000D00011E0A0E0B1E0EAE2F9E002C005900D9283
:1000E000A237B107D9F722E0A2E7B1E001C01D9223
:1000F000A831B207E1F710E0C2E6D0E004C02197D2
:10010000FE010E948D04C136D107C9F70E94E402A6
:100110000C9493040C940000AF92BF92CF92DF92A4
:10012000EF92FF920F931F93CF93DF936C017B01AC
:100130008B01040F151FEB015E01AE18BF08C0173D
:10014000D10759F06991D601ED91FC910190F081B0
:10015000E02DC6010995892B79F7C501DF91CF9173
:100160001F910F91FF90EF90DF90CF90BF90AF90D5
:100170000895FC01538D448D252F30E0842F90E0AD
:10018000821B930B541710F0CF9608950197089592
:10019000FC01918D828D981761F0A28DAE0FBF2F5B
:1001A000B11D5D968C91928D9F5F9F73928F90E0B1
:1001B00008958FEF9FEF0895FC01918D828D981720
:1001C00031F0828DE80FF11D858D90E008958FEF5D
:1001D0009FEF0895FC01918D228D892F90E0805C26
:1001E0009F4F821B91098F73992708958BE791E0A8
:1001F0000E94EA0021E0892B09F420E0822F089573
:1002000080E090E0892B29F00E94F60081110C9487
:1002100000000895FC01A48DA80FB92FB11DA35AA9
:10022000BF4F2C91848D90E001968F739927848F16
:10023000A689B7892C93A089B1898C918370806439
:100240008C93938D848D981306C00288F389E02DDA
:1002500080818F7D80830895EF92FF920F931F938B
:10026000CF93DF93EC0181E0888F9B8D8C8D981369
:100270001AC0E889F989808185FF15C09FB7F89475
:10028000EE89FF896083E889F989808183708064C1
:1002900080839FBF81E090E0DF91CF911F910F910C
:1002A000FF90EF900895F62E0B8D10E00F5F1F4F1B
:1002B0000F731127E02E8C8D8E110CC00FB607FC2A
:1002C000FACFE889F989808185FFF5CFCE010E94B8
:1002D0000A01F1CFEB8DEC0FFD2FF11DE35AFF4F1B
:1002E000F0829FB7F8940B8FEA89FB898081806246
:1002F000CFCFCF93DF93EC01888D8823B9F0AA8903
:10030000BB89E889F9898C9185FD03C0808186FDD0
:100310000DC00FB607FCF7CF8C9185FFF2CF80811F
:1003200085FFEDCFCE010E940A01E9CFDF91CF9189
:1003300008958E50806480937C0080917A00806460
:1003400080937A0080917A0086FDFCCF80917800BE
:100350009091790008953FB7F8948091770190913A
:100360007801A0917901B0917A0126B5A89B05C0CA
:100370002F3F19F00196A11DB11D3FBFBA2FA92F24
:10038000982F8827BC01CD01620F711D811D911D21
:1003900042E0660F771F881F991F4A95D1F708958D
:1003A000FC0101900020E9F73197AF01481B590B80
:1003B000BC018BE791E00C948C008F929F92AF92DE
:1003C000BF920F931F93CF93DF93CDB7DEB7A19763
:1003D0000FB6F894DEBF0FBECDBF19A2423008F4AD
:1003E0004AE08E010F5D1F4F842E912CB12CA12C61
:1003F000A50194010E946B04E62FB901CA01EA30FD
:10040000F4F4E05DD801EE938D01232B242B252BF2
:1004100079F790E080E0109719F0CD010E94D001AB
:10042000A1960FB6F894DEBF0FBECDBFDF91CF917E
:100430001F910F91BF90AF909F908F900895E95CAE
:10044000E1CFCF92DF92EF92FF92CF93DF936B01D8
:100450007C016DE28BE791E00E942C01EC016627A4
:100460007727CB016C197D098E099F094AE00E940C
:10047000DD018C0F9D1FDF91CF91FF90EF90DF90FA
:10048000CF9008951F920F920FB60F9211242F93C1
:100490003F934F935F936F937F938F939F93AF930C
:1004A000BF93EF93FF938BE791E00E940A01FF91C6
:1004B000EF91BF91AF919F918F917F916F915F91DC
:1004C0004F913F912F910F900FBE0F901F90189555
:1004D0001F920F920FB60F9211242F938F939F9319
:1004E000EF93FF93E0918B01F0918C018081E0917B
:1004F0009101F091920182FD1BC090818091940145
:100500008F5F8F7320919501821741F0E0919401E4
:10051000F0E0E558FE4F958F80939401FF91EF91A5
:100520009F918F912F910F900FBE0F901F90189554
:100530008081F4CF1F920F920FB60F9211242F9348
:100540003F938F939F93AF93BF938091730190914B
:100550007401A0917501B09176013091720123E090
:10056000230F2D3758F50196A11DB11D209372015F
:100570008093730190937401A0937501B0937601F9
:100580008091770190917801A0917901B0917A01E1
:100590000196A11DB11D8093770190937801A093DE
:1005A0007901B0937A01BF91AF919F918F913F9163
:1005B0002F910F900FBE0F901F90189526E8230FD4
:1005C0000296A11DB11DD2CF789484B5826084BDFE
:1005D00084B5816084BD85B5826085BD85B5816047
:1005E00085BD80916E00816080936E0010928100C5
:1005F0008091810082608093810080918100816080
:100600008093810080918000816080938000809140
:10061000B10084608093B1008091B00081608093CC
:10062000B00080917A00846080937A0080917A0093
:10063000826080937A0080917A00816080937A0052
:1006400080917A00806880937A001092C100E091D6
:100650008B01F0918C0182E08083E0918701F09121
:1006600088011082E0918901F0918A0183E0808302
:1006700010929301E0918F01F091900186E08083C8
:10068000E0918D01F0918E01808180618083E09105
:100690008D01F0918E01808188608083E0918D01D1
:1006A000F0918E01808180688083E0918D01F091CE
:1006B0008E0180818F7D808352EA252E50E0352E79
:1006C000F10124916EE8A62E60E0B62EF50184912A
:1006D0008823C1F090E0880F991FFC01EE58FF4F6E
:1006E000A591B491FC01E859FF4FC591D4919FB7F2
:1006F000F8943C91822F809583238C938881282BBA
:1007000028839FBF30E0832E30E0932E8EE00E943E
:1007100099018C018FE00E949901EC01E6EBF0E079
:100720008491F1019491F5012491F12CE12C222383
:10073000E9F0882359F0833009F459C008F04CC01F
:10074000813009F45AC0823009F45BC0E22FF0E036
:10075000EE0FFF1FE458FF4FA591B4918C919823A1
:1007600021E080E009F420E0E22EF82E8EE191E015
:100770000E94D00184E491E00E94D001B801110FE1
:10078000880B990B97FF4AC00E9421028FE491E0E9
:100790000E94D001BE01DD0F880B990B97FF42C06C
:1007A0000E9421028DE591E00E94D00182E191E05A
:1007B000EF2811F486E191E00E94D0018EE691E0ED
:1007C0000E94D0010E94AB016B017C0184E6482E9F
:1007D000512C612C712C3AC08730B1F08830D1F0A7
:1007E000843009F0B3CF809180008F7D03C0809169
:1007F00080008F7780938000A9CF84B58F7784BDE8
:10080000A5CF84B58F7DFBCF8091B0008F7780938B
:10081000B0009CCF8091B0008F7DF9CF4AE00E945C
:10082000DD01B4CF4AE00E94DD01BCCFF1E04F1AF8
:1008300051086108710828EEC20E23E0D21EE11CA7
:10084000F11C411451046104710461F00E94AB0178
:100850006C197D098E099F09683E734081059105D9
:1008600028F7F4CF8114910409F450CF0E94F600C8
:10087000882309F44BCF0E94000048CFEBE7F1E05A
:100880001382128288EE93E0A0E0B0E08483958327
:10089000A683B78384E091E09183808385EC90E028
:1008A0009587848784EC90E09787868780EC90E03A
:1008B000918B808B81EC90E0938B828B82EC90E02B
:1008C000958B848B86EC90E0978B868B118E128EA5
:1008D000138E148E0895A1E21A2EAA1BBB1BFD01D4
:1008E0000DC0AA1FBB1FEE1FFF1FA217B307E4070F
:1008F000F50720F0A21BB30BE40BF50B661F771F67
:10090000881F991F1A9469F7609570958095909546
:100910009B01AC01BD01CF010895EE0FFF1F0590B3
:0A092000F491E02D0994F894FFCF44
:10092A00000000002C018C00B9007901EA00C8001F
:10093A00DC004E6F742050726573736564006869D9
:10094A00207869616F2C20554E4F2F4E414E4F2013
:10095A002B206A6F79737469636B20736869656C9D
:10096A00642C200041305F70696E3D583A200020A7
:10097A00202041315F70696E3D593A2000202020C5
:10098A0044393D427574746F6E2D4B3A20000D0A3E
:02099A0000005B
:00000001FF
